:020000021000EC
:100000000000042051D3010089D301009DB60100F6
:100010008DD30100A9B60100AFB6010000000000B9
:100020000000000000000000000000002564010046
:1000300095D3010000000000BF640100CF640100FF
:100040002D0D0200A18801009BD301009BD301006C
:100050009BD301009BD301009BD301009BD30100E4
:100060009BD301009BD301009BD301009BD30100D4
:100070009BD30100C10E02009BD30100B98801008F
:100080009BD301009BD301009BD301009BD30100B4
:100090009BD301009BD301009BD301009BD30100A4
:1000A0009BD301009BD301009BD301009BD3010094
:1000B0009BD301009BD30100000000000000000062
:1000C0009BD301009BD301009BD301009BD3010074
:1000D0009BD301009BD301009BD301009BD3010064
:1000E0009BD301009BD301009BD3010000000000C3
:1000F000000000009BD30100000000009BD3010022
:1001000010B5054C237833B9044B13B10448AFF351
:1001100000800123237010BDC012002000000000E9
:10012000DCD6020008B5034B1BB103490348AFF30B
:10013000008008BD00000000C4120020DCD60200D0
:10014000154B002B08BF134B9D46A3F5803A0021A9
:100150008B460F461348144A121A15F031FD0F4B07
:10016000002B00D098470E4B002B00D09847002062
:10017000002104000D000D48002802D00C480CF0AE
:1001800035F815F01DF82000290008F0CBF90CF027
:100190002AF800BF00000800000004200000000052
:1001A00081840100C0120020E0B90020EDC10100EF
:1001B0000000000070472DE91848D0E910BC044643
:1001C0001BF5FA704CF100014FF47A72002312F023
:1001D000A3FDD4E912BCE0621BF5FA704CF10001FA
:1001E0004FF47A72002312F097FDD4E916BC206315
:1001F0001BF5FA704CF100014FF47A72002312F0F3
:100200008BFDD4E914BCA0631BF5FA704FF47A722D
:100210004FF000034CF1000112F07EFD6063BDE879
:100220001888036808681847012A03D0022A03D0F7
:10023000002070470160FBE70B680360F8E710B52A
:100240000446006818B1237B0BB102F07DFD204607
:1002500010BD1FB5ADF80010ADF802200190ADF84B
:100260000810ADF80A20039002AA10EE101A684692
:1002700001F074FE05B05DF804FB0B6803604B6889
:1002800043608B688360704708B500EB8101920082
:10029000184615F097FB002008BD0000F8B51D4674
:1002A0000F460646144602F01CFDC7E900012F6800
:1002B000356911486B689847014628B10F4802F02C
:1002C00015FD6FF00500F8BD2B692146984768B908
:1002D0000446327BE3B29A420BD9B0686A69C05CCB
:1002E00007EB8311904701340028F2D06FF0020031
:1002F000E9E70020E7E700BF2D03010038A2020074
:1003000008B528B9064B074A07486B2113F0D2FFFE
:1003100030F8023CC01ABDE8084002F015BD00BF2D
:10032000CCAD0200A6A40200BDA2020038B505466D
:100330006B1E2B42084605D00C4B0D4A0D48482138
:1003400013F0B8FF15B90023184638BD0029FAD0BC
:100350006C1C0121204402F0F5FC0028F3D0044479
:100360006B422340181A23F8020CEDE734A3020075
:10037000CFA40200BDA2020000687047F0B5C068BB
:10038000059C1E6E90F854C000218C452AD956F861
:1003900031502DB306EBC1077F68BA421ED1B0F8C9
:1003A000626008330022964203F108031DD92968D0
:1003B00094ED007A895607EE901AF8EEE77A416ECE
:1003C00077EEC77A94ED017A51F8221043F8081CB1
:1003D00067EE877A013243ED017AE4E7002FDED041
:1003E0000131D2E76FF02000F0BD0020FCE710B52E
:1003F0008368044613B1032201469847204610BD86
:100400000022C26070470C30704708B5FFF7FBFF51
:100410000023036008BDCB68C3600BB15B6818475D
:100420007047C3680BB19B681847704770B50446A6
:100430000E46154633B1036000232373C4E90165FA
:10044000204670BD90000121704302F07BFC012327
:100450002060F2E710B52DED028B08EE101AF7EED2
:10046000007AB4EE678AF1EE10FA044621D000EE6D
:10047000101A028981880068FFF7EBFEC8B10F49A6
:100480000F4802F033FCB0EE480A2289A1882068A8
:10049000FFF7DFFE01460B4802F028FCB0EE480AE9
:1004A000BDEC028B2289A1882068BDE81040FFF7CF
:1004B000D0BEBDEC028B002010BD00BFF5A3020032
:1004C000F9A30200FEA3020070B5002405462646EB
:1004D0002B6893F83C30A3420BD96B6853F8240087
:1004E00028B10368DB6898476B6843F824600134DF
:1004F000EEE770BD10B50446FFF7E6FF606802F056
:1005000023FC204610BD2DE9F34781460F4602F03B
:10051000E8FB04460D46B9F1000F49D0D9F80C802C
:100520000026D8F84C30B34221D9D9F810300BB19D
:1005300053F82630D8F85020019302EB461231468A
:1005400093690093D2F810A0D2693B464846D04741
:10055000824650B102F0C5FB021B61EB0503C7E9FF
:100560001423504602B0BDE8F0870136D9E70026D3
:10057000B24698F85430B34210D93B6E53F83690D7
:10058000B9F1000F08D04846FFF759FE484602F07F
:10059000DBFB3B6E43F836A00136EAE702F0A1FB35
:1005A000021B61EB0503C7E914234FF0000AD8E7EB
:1005B0006FF00A0AD5E700002DE9F84F4FF0000967
:1005C00082461546C8464F460A9B994578D0DAF8C8
:1005D00000602978D6E90143032903FB04F427448A
:1005E0003DD0092910D001295ED100218C4262D072
:1005F000326802EB810208EB010013686A6802EBC3
:10060000800201311360F1E74FF0000BD6E90123BE
:1006100053435B4508EB0B044ED93368D5ED037AA1
:1006200003EB8B0393ED007AC7EE277A0BF1010BF6
:1006300017EE900A13F0FCFD07EE900AFDEEE77A44
:100640002A696B6817EE900A10447F28A8BF7F20A4
:100650006FF07F029042B8BF10461855D6E74FF0B2
:10066000000BD6E9012353435B4508EB0B0423D968
:100670003368D5ED037A03EB8B0393ED007AC7EE75
:10068000277A0BF1010B17EE900A13F0D1FD07EE5C
:10069000900AFDEEE77A2A696B6817EE900A10441B
:1006A00080F308001855DCE70D4802F01FFB6FF0DF
:1006B0000C00BDE8F88F444409F10109A04683E726
:1006C000A969B7EB910F08D0B94206D005483A4660
:1006D00002F00CFB6FF01700EBE70020E9E700BF2A
:1006E0004CA1020070A10200D1E9013270B50C46A4
:1006F0000178032902FB03F230D0092915D0012922
:1007000045D18369B2EB930F08D0042193FBF1F13B
:10071000224802F0EBFA6FF0170005E0416820680C
:100720001A4615F04FF9002070BD81699142EFD152
:1007300000229142F7D02368066990ED037A03EB1B
:10074000820543689B569B1B07EE903AF8EEE77ACA
:10075000013267EE877AC5ED007AEAE78169914256
:10076000D6D100229142DED02368066990ED037A4B
:1007700003EB820543689B5C9B1B07EE903AF8EE07
:10078000E77A013267EE877AC5ED007AEAE7044836
:1007900002F0ACFA6FF00D00C6E700BFBDA1020089
:1007A000FFA102002DE9FF4705460E461746984671
:1007B00000244FF01809E86890F84430A34212D999
:1007C000836CCDF80C8009FB043331469A68CDE97F
:1007D00001721A7D0092D3F804A01B692246D0470B
:1007E00040B90134E7E702F07AFA831C0CBF6FF0DE
:1007F0000100002004B0BDE8F087036913B504468A
:100800003BB1019383680BB910F082FDC36801A965
:100810009847002323612046FFF7E9FD204602B0F8
:1008200010BD10B50446FFF7FCFD204610BD1FB5F6
:1008300001938368CDE902210BB910F069FDC4680A
:1008400001AB02AA03A9A04704B010BD38B50C46FD
:10085000D5680169D4E901235A438A4228BF0A4670
:1008600023680021FFF7E3FF29462046FFF7F2FD4A
:1008700038BD00002DE9F04F2DED028B804685B08C
:100880008B4650693F49D2F808A09FED3F8ADFEDC3
:100890003F8A15F009FC00240028D8F8107014BF16
:1008A0004FF003094FF001092646D8F81030A34253
:1008B00065D9B7F5806F3D4628BF4FF480650023AA
:1008C000524629466846FFF7B1FD009B43B968468A
:1008D000FFF7B5FC2E4805B0BDEC028BBDE8F08FEC
:1008E0002A4621464046FFF7A2FF009ADFED295A2B
:1008F0009FED295A02EB8501914239D0F2EC017A41
:10090000FCEEE77AB9F1030F17EE903AC3F3074014
:1009100007EE900AF8EEE77AC3F3072087EE886ABD
:10092000DBB207EE900AF8EEE77A06F1010087EEF7
:10093000887A08BFF01C07EE903AF8EEE77A18BF05
:1009400027EE287AC7EE886ADBF8003003EB8603CF
:10095000064615BFA6EE257A83ED006AA6EE857AD7
:1009600083ED017A0CBFC3ED026A83ED007AC3E721
:1009700068467F1BFFF763FC04F5806495E7002061
:10098000A9E700BF4FA3020000007F43A245163F26
:1009900016FCFFFF8716993ED578E93D2DE9F8430F
:1009A00005469846D0E90230076AB1FBF3F107FB30
:1009B00001F4B2FBF3F24FF0000907FB0247A74234
:1009C00016D90026AA68B24209EB06030BD96A6859
:1009D0002868915D08EB830301222144FFF727FF7C
:1009E00038B90136EEE7EA68126A99461444E6E738
:1009F0000020BDE8F88310B50446006808B102F095
:100A0000A3F9204610BD38B5046805462CB1204630
:100A1000FFF715FC204602F097F9284638BD002262
:100A200038B50B680A600568036004462DB1284696
:100A3000FFF705FC284602F087F9204638BD10B5BF
:100A40000446FFF7E8FC204610BD022A70B50446B4
:100A500007D0032A0FD0012A01D10B6803600020C0
:100A600070BD10200E680BF0C7FD31460546FFF73C
:100A7000E6FF2560F3E70468002CF0D02046FFF77E
:100A8000D0FE102120460BF0E3FDE8E730B40D4620
:100A90000468286811461A46029B12681B68096898
:100AA000A44630BC60477FB5039303ABCDE9042176
:100AB000009305AA04AB011DFFF7E8FF07B05DF83E
:100AC00004FB0000044AC260034603C9002283E815
:100AD00003009A60704700BF40A1020013B5CDE942
:100AE000001269460446FFF7EDFF204602B010BD34
:100AF00010B50446FFF7F2FF204610BD13B50B46B4
:100B00000446D0E900016A4682E8030093E8030046
:100B100084E8030092E8030083E8030002B010BDFC
:100B200038B505460C46FFF7E9FFAB68A268AA6036
:100B3000A360E268EB68EA60E36038BD30B589B075
:100B400004466846FFF77BFF0023102006930BF056
:100B500053FD69460546FFF772FF094B079321468F
:100B6000084B069304A80495FFF7DAFF04A8FFF7E3
:100B70003EFC6846FFF755FE204609B030BD00BF79
:100B8000791B01004B0A01001FB514461161024692
:100B900006496846FFF7ACFF69462046FFF7CEFFDF
:100BA0006846FFF73EFE002004B010BD8902010038
:100BB000F0B4D0E90046096817681A68049B7510FC
:100BC000F60701EB050048BF49591B6848BF0C599F
:100BD0003946A446F0BC60477FB5039303ABCDE92B
:100BE00004210093014604AB05AA0430FFF7E0FF9F
:100BF00007B05DF804FB0000034AC260034607C962
:100C000083E80700704700BF34A1020010B586B02A
:100C100004460391684606A980E80C0001E90C002F
:100C2000204603A9FFF7E8FF204606B010BD37B500
:100C30006C4684E80C0094E80C000546FFF7E6FFDC
:100C4000284603B030BD0000D0E9023210B501469D
:100C5000106A0C68834286B016D02269B2FBF0F2AB
:100C600053430B620A4B0093002301936B4601F13F
:100C700010040CCB02A8FFF7DAFF02A92046FFF709
:100C80005DFF02A8FFF7CDFD204606B010BD00BFF6
:100C90009D09010038B504460D46002383600146D6
:100CA0002846FFF72BFFAB68A268AA60A360E26842
:100CB000EB68EA602046E36038BD00002DE9F04FA4
:100CC000A1B0DDE92B98044698F80C0004921E466A
:100CD0008001D8F8103005930D4602F031F80790E6
:100CE00001F0FFFF644B1093644B1393CDE90801AF
:100CF000634B129310A90BA8FFF7CCFF002310A899
:100D00000F93FFF774FB07AB10AA08A94046FFF743
:100D1000C5FA0746002840F0A08094F844300293BA
:100D200094F83C3001932A9B009310AA3346D9F8DB
:100D300060102846FFF740FC0746002840F08D80F1
:100D4000D8F810309B68DDE90845984708BB01F0EA
:100D5000C8FF021B61EB0503C9E9122301F0BFFFC5
:100D6000023008BF6FF00107002498F80C30A3424E
:100D70007AD90798A10145180022AB6853F804EB13
:100D80000126964508DD53F804CB01320CFB06F62C
:100D9000F7E76FF00207E7E710F801B0BBF1030FC8
:100DA0001BD0BBF1090F18D0BBF1010F4FD11020A0
:100DB00001F0C6FF0023324659468246FFF736FB54
:100DC000049BD9F860206968DAF80000E31842F85B
:100DD00033A0AA6914F0F6FD16E0049B04EB030AA5
:100DE00098F814301020DBB101F0AAFF0023012194
:100DF00032468346FFF71AFBD9F86030594643F86C
:100E00003AB02846FFF770FC049BE218D9F860302E
:100E100003EBC203D8F8042022445A600134A4E74B
:100E200001F08EFF01218346304601F08BFF4FF029
:100E30000103CBF800008BF80C300123CBE901361D
:100E4000D9F86030AA6943F83AB06968C2E75946F0
:100E50000C4801F04BFF6FF00D070BA8FFF7CDFC1E
:100E6000384621B0BDE8F08F059B0348DB68984702
:100E7000079801F069FFF0E7010301002302010078
:100E800029020100FFA102002DE9F04F2DED0E8B8C
:100E9000ADB01E469DF814310B93449B01921B6923
:100EA0000893449B0546187B8001884601F048FF63
:100EB000BF4B1C93BF4B0F901CA91F9317A8BE4B91
:100EC0001E93FFF7E7FE00231CA81B93FFF78FFA82
:100ED0000FAB1CAA10A94498FFF7E0F904460028BC
:100EE00059D19DF87030092B02D0032B40F0A2821B
:100EF00001F0F7FEAB6904931D9B0093CDE9060159
:100F0000002B51D10121049801F01CFF0123009016
:100F100005932B6CAA6CDB68DDED207A5869D468E8
:100F2000A6499A680992B8EEE78A15F0BDF800283C
:100F300014BF032301230A930025D8F81030DDEDF8
:100F40001F8A9FED9F9A9FED9FBA0293A946D8F8FA
:100F50001030AB4240F2A181029B099AB3F5806F39
:100F600028BF4FF4806303930399002313A8FFF76E
:100F70005DFA139BD3B913A8FFF761F9924993481F
:100F800001F0B4FE6FF00404009B23B1059B13B184
:100F9000009801F0D9FE17A8FFF72FFC20462DB0CE
:100FA000BDEC0E8BBDE8F08F0023B1E7039ADFEDB7
:100FB00088BA9FED88CADFED88DA9FED88DADFED29
:100FC000889A9FED88AADFED88AA29464046FFF758
:100FD0002EFC0027039B9F4200F05681139B03EBDE
:100FE0008703D3ED007A009BFCEEE77A03EB090A56
:100FF00017EE901A0A9B080A032BC1F3074307EE6A
:10100000103AC3B206EE903ACBB209F1010B07EEEB
:10101000903A40F09D80009B009AF4EE498A5B4430
:10102000F1EE10FA09F1020B5A4409F1030B26D133
:101030009FED6E6AB4EE468AF1EE10FA1FD1F4B954
:10104000B8EEC77AF8EEE66A37EE6D7A76EEED6ABC
:10105000BDEEC77AF8EEE77A17EE101A77EEED7A62
:10106000BDEEE67A8AF80010FDEEE77A17EE101A68
:10107000197017EE903A13700137D946AAE7C0B23B
:1010800007EE900AC9B2B8EEE7EA07EE901AB8EE9A
:10109000C77AF8EEE7CABCBB87EE0D7A8EEE0DEA92
:1010A000CCEE8DCACDE90C32C7EE287A17EE900A45
:1010B00013F0BEF807EE900A78EE277AFDEEE77A95
:1010C00017EE901ACEEE287A8AF8001017EE900AE2
:1010D00013F0AEF807EE900A78EE277A0C9BFDEE3F
:1010E000E77A17EE901ACCEEA87A197017EE900AEC
:1010F00013F09EF807EE900A78EE277A0D9AFDEE2F
:10110000E77A17EE903AB6E7022C18D1C7EE0D7ABF
:10111000DFED376A77EEE97A87EE8A7ACEEE0D7ADE
:1011200077EEEA7A87EEA6EACCEE8D7ADFED316AC9
:1011300077EEE67ADFED306AC7EEA6CAB2E7042C96
:1011400002BF37EE6D7A3EEE6DEA7CEEEDCAA9E79E
:10115000F4EE498AF1EE10FA50D19FED246AB4EE14
:10116000468AF1EE10FA49D1002C47D116EE902AAA
:1011700049F24563534317EE102A44F68B4101FBB5
:10118000023317EE902A41F62F5101FB02331B1454
:1011900007EE903AF8EEE77A77EEED7AFDEEE77A31
:1011A00017EE903A03F307038AF8003064E700BFB4
:1011B0000103010023020100290201004FA30200E4
:1011C0008180803BA245163F16FCFFFF5CA6020013
:1011D0008716993ED578E93D0000004300007F4323
:1011E000EC51F83EFA7E6A3ED578E93E000000C335
:1011F0004260653E3BDFCF3E6666663EB8EEC77A2C
:10120000F8EEE66AF8EEE77AD4B987EE0D7AC6EE24
:101210008D6AC7EE8D7A66EE8B6AE7EE2B6AE7EE93
:101220008C6AC6EEA87A17EE900A13F001F807EE62
:10123000900A78EE277AFDEEE77A17EE903AB3E758
:10124000022C18D187EE0D6A5FED175A36EE696AE7
:1012500086EE0A7A86EE8D6A36EE6A6AC6EE256AF0
:1012600087EE8D6A5FED1D7A5FED1D5A36EE676A77
:10127000C6EE257ACFE7042C02BF37EE6D7A76EE04
:10128000ED6A77EEED7AC6E7029B13A8DB1B0293AB
:1012900005F58065FEF7D3FF59E601F020FD831CBC
:1012A00000F0C68001F01DFDDDE90634C31A1846C2
:1012B00061EB04040B9B2146C6E910010BB3F16AF4
:1012C0005E485F4C01F012FD009D049B2B441F46BD
:1012D000AF4213D015F9013B209A9DED1F7A9B1A5E
:1012E00007EE903AF8EEE77A67EE877A17EE900A03
:1012F00001F016FD204601F0F9FCE9E7514801F044
:10130000F5FC01F0EEFC449B1B6904460D46CDE95B
:1013100010459B68984728BB01F0E3FC021B61EB7A
:101320000503C6E9122301F0DAFC023014BF0024E1
:101330006FF0010400254FF00109449B1B7BAB4279
:101340006ED90F98A90147180022BB6853F804EB27
:101350004FF00108964508DD53F804CB01320CFB31
:1013600008F8F7E76FF00204E4E710F801B0BBF10A
:10137000030F1AD0BBF1090F17D0BBF1010F48D1F1
:10138000102001F0DDFC0023424659468246FFF75B
:101390004DF8019B326E7968DAF80000EB1842F8DC
:1013A00033A0BA6914F00EFB15E0019B05EB030AAC
:1013B000449B1B7D1020CBB101F0C2FC0023012116
:1013C00042468346FFF732F8336E594643F83AB047
:1013D0003846FFF789F9019BEA18336E03EBC20325
:1013E000449A52682A445A600135A6E701F0A8FCE5
:1013F00001218346404601F0A5FCCBF80000336E86
:101400008BF80C90CBE90198BA6943F83AB0796847
:10141000C8E759460C4801F069FC6FF00D04B3E5CC
:10142000089B0A48DB6898470F9801F08DFCABE5F4
:101430000446A9E56FF00804ADE500BF24A2020050
:1014400032C802003BC70200FFA1020001030100F5
:1014500007B50193836C9B68009313460022FFF746
:1014600013FD03B05DF804FB2DE9F04F9FB0154666
:10147000079108930446002800F0BA81C368002B46
:1014800000F0B681002A00F0B381002900F0B0819D
:1014900068220021284614F093FBE36893F8546017
:1014A000F600304601F04CFC3246002128661390CD
:1014B00014F086FBE068836C90F85520D3E9016155
:1014C0000E2A90F83C3004932AD844F6A403D34063
:1014D000DA0725D590F8613013BB984B9E421FD197
:1014E0004B7BEBB1049B012B1AD1036C9A68944B94
:1014F0009A4215D1089B07992A46FFF7A9FF06468D
:1015000038B929462046FEF7FEFF06462846FEF774
:1015100052FE13A8FFF76FFA30461FB0BDE8F08FF8
:10152000049BDE00304601F00BFC0290149040B9A1
:10153000844801F0DBFB6FF0070614A8FFF75BFAA5
:10154000E7E73246002114F03BFB049B981C800027
:101550000BF066F804230360049B436000F108036A
:101560000393DDE903238046002113F1FF3302D307
:1015700042F8041BF9E7039B0BB97348D9E701F064
:10158000B0FBCDE90C01039B069300260596E368AA
:1015900093F83C20B24240F2E7802422724317467F
:1015A0001A6CD319D2590B92D3E901A21092DA68BE
:1015B00009921A690F9210205A69DB690E920A93F8
:1015C00001F0BEFB0DF1780B524600230121119072
:1015D000FEF72CFF119B4BF8243D06985946FFF768
:1015E0001EFA5846FFF70FFA069B53F8042B069392
:1015F0004FEA8609A2B93146544801F077FB6FF0F3
:101600000706D8F80440039BA4001F193D46039B1E
:10161000AB4200F0E180043D2846FFF7F4F9F6E71D
:101620001168C1B93146494801F060FBD8F804405F
:10163000039B03EB8404039B9C4204D0043C2046A0
:10164000FFF7E1F9F7E7D8F80410023189004046C6
:101650000BF002F8D3E7029B43F8362003EBC602F7
:101660000B9B5360E268059B916953448B42059341
:1016700005D9374801F03AFB6FF00406C1E7079B34
:1016800015930F9B16930E9B5846CDE917320022F7
:101690001B92FFF7D9FA0A9B8246002B36D02D4BBE
:1016A0001B784BB92C492D4801F020FB2C4801F048
:1016B0001DFB284A01231370D4F804B05BF80930ED
:1016C00043B921680A6C896B3A44D369D06898475A
:1016D0004BF80900636853F8090048B303680195A3
:1016E000E268926B0092029AD3F8049052F8362086
:1016F000099B5146C84790B101461A4801F0F6FAD5
:101700006FF0040619A8FEF772FE7AE7E368029903
:101710009B6B099A51F83610109FB847EBE701F020
:10172000DEFA831C07D019A8FEF761FE01362EE70A
:101730006FF00A06E6E70646E4E700BFBD0C0100CD
:101740007508010081A60200AEA60200DEA6020016
:10175000EAA50200DC1200206FA30200F9A3020038
:1017600080A502005CA6020001F0BBFADDE90C23B3
:10177000821A61EB03031946089B1046C5E9100164
:10178000002B3BD0E96A2848284EDFF8A89001F0EA
:10179000ADFA4FF0000A049B9A452CD2029B53F8F5
:1017A0003A30B3B14FF0000B029B53F83A309A68CD
:1017B0005A450BD91B6803EB8B030BF1010B18681F
:1017C00001F0AEFA304601F091FAEDE7484601F03B
:1017D0008DFA0AF1010ADEE7A4086FF0030000FBAE
:1017E000047008384168023189000AF035FFA4E628
:1017F0006FF0150690E60E4801F078FA089B029902
:101800002A462046FEF7CEFF064600287FF4F9AEB2
:1018100029462046FEF777FE064600287FF4F1AE03
:101820002846FEF7C8FCECE624A2020032C80200FB
:101830003DA702003BC7020013460A460146014885
:10184000FFF712BEF812002070B52DED048B0022B8
:10185000A8B011468D4800F0A7FA002109EE100A41
:101860008A4800F039FB08EE900A0E2004F0D8FCFC
:1018700005460F2004F0D4FC002408EE100A009462
:10188000642340F2FF322146284604F0BAF9B4EE50
:10189000499A07EE900AF1EE10FAF8EEE79AB8EEE0
:1018A000C88A80F1BA80F4EE688AF1EE10FA80F10D
:1018B000B4807749774804F0B1FA19EE900A10F035
:1018C0008BFE022602460B460096724804F0A4FBEB
:1018D0007149704804F0A2FA19EE100A10F07CFE6B
:1018E000009602460B466B4804F096FB6B4969482C
:1018F00004F094FA18EE900A10F06EFE009602467C
:101900000B46644804F088FB6549624804F086FA97
:1019100018EE100A10F060FE00960B4602465D4875
:1019200004F07CFB682221460EA8CDED059A8DEDD2
:10193000069ACDED078A8DED088A14F041F909AABF
:10194000042105A80B94FFF71FF922460EA909A848
:10195000FFF772FF054600286BD19DED137ADDED90
:10196000117AB4EEE77AF1EE10FACCBF1022082219
:1019700028A90A449DED157A52ED197AB4EE677ADA
:10198000D4BF23460123F1EE10FAC8BF334601331A
:1019900001EBC30402A854F8681C04F097FBDFEDC8
:1019A000417A14ED198A40493A4828EE278A04F012
:1019B00035FA02A9374804F02CFA3C49354804F0BE
:1019C0002DFA18EE100A10F007FE009602460B469C
:1019D000304804F021FB36492E4804F02DFA294600
:1019E000052004F0D1FC2946062004F0CDFC294650
:1019F000072004F0C9FC2946082004F0C5FC2D4945
:101A000002A804F075FBE0B92B4902A804F070FBB2
:101A1000044630B30121062015E028491D4804F092
:101A20000BFA4FF4FA6004F0C9FB28B0BDEC048B4C
:101A300070BD2349174804F0FFF909A8FEF7D7FC49
:101A4000F3E70121052004F09FFC1E49114804F032
:101A5000F3F940F6B83004F0B1FB02A804F0EBFA59
:101A6000EBE7194902A804F043FB0028EDD001215F
:101A7000072004F089FC0121082004F085FC4FF4C4
:101A8000FA7004F09BFB21460820DCE7E0120020FE
:101A900004A50200981A00200BA5020015A502005B
:101AA00023A502000000C8422EA502003BA50200AB
:101AB0003EA5020041A502006AA5020046A502005B
:101AC00057A502007CA5020073A5020008B51B689B
:101AD00012680968FEF7E7FF08BD1FB5CDE90221CE
:101AE00004AA03A942F80C3D134602AAFFF7EEFF31
:101AF00005B05DF804FB08B51B6812680968FFF7BC
:101B00006BF808BD1FB5CDE9022104AA03A942F86C
:101B10000C3D134602AAFFF7EEFF05B05DF804FB8B
:101B200008B5FEF770FC0068003018BF012008BD42
:101B30002DE9F04104460E4617469846FFF7F0FFA0
:101B400028B940F202220849084809F059FFE06824
:101B5000FEF712FC054643463A4631462046AC465F
:101B6000BDE8F041604700BF8FA402009AA40200C4
:101B700008B5FFF7DDFF08BD08B512681B680968E6
:101B80000068FFF7F5FF08BD2DE9F041124E134B39
:101B900096F83C70124C1B68F3660025B80026606E
:101BA000257201F0CDF82B4660602A469F4203D98A
:101BB00040F823200133F9E7C4E90362626109496F
:101BC000094A07480AF00DFB06231622022107489E
:101BD000BDE8F04100F034B804020020F412002007
:101BE000F8120020F504010000020020E01200209D
:101BF00010B5104C4FF4E131204602F005FE3721BC
:101C00000D4800F02DF80121082004F079FB012196
:101C1000052004F075FB0121062004F071FB012171
:101C2000072004F06DFB20460449BDE8104004F095
:101C300003B900BF981A0020E012002051A702004B
:101C40008271054A417112680449B2FBF1F14FF407
:101C50007A724A43C2607047A808002040420F00D1
:101C600038B504460D464079022104F049FB04F0E2
:101C700087FAA0F5FA60A060657438BD70B50546B6
:101C80000E460024687904F0A7FBB04206D1EB6849
:101C9000A34204F1010203D84FF0FF34204670BD87
:101CA0001446EFE730B50D46D1B0044604F068FAAB
:101CB0003DB9A368C31AB3F5FA6F02D2207C51B0C4
:101CC00030BD00250221A06025606079257104F0F7
:101CD00017FB012004F072FA0121607904F010FB77
:101CE0002946607904F050FBA379153B012B15D8E8
:101CF00040F24C4004F064FA0221607904F000FBE9
:101D0000607C04F05DFA72B600212046FFF7B6FF52
:101D1000013007D10020207462B6D0E7142004F00F
:101D20004DFAE9E701212046FFF7A8FF0130F1D085
:101D3000002500212046FFF7A1FF01214DF80500F5
:101D40002046FFF79BFF0DEB05030835B5F5A07F97
:101D50005860EED162B600225DF832500DEBC2033E
:101D6000691C586801D0431C02D100202074A6E7EA
:101D7000D1108542635C4FEA4303DBB202F10102FA
:101D800038BF43F00103282A6354E5D161782378F2
:101D900022790B44A1780B44E1780B44DBB29A42E0
:101DA000E3D10120E2E700002DE9F8430D462DEDD7
:101DB000028B11460446FFF775FF00287ED0A379F9
:101DC0000B3B0B2B7AD8DFE803F0063F7979797962
:101DD000797979796565A378E07808EE103A01069B
:101DE000B8EE488A48BFFFEE007A00F00F0048BF07
:101DF00037EEC88A10F0DEFB31A3D3E9002310F0E0
:101E000043FC064618EE100A0F4610F0E5FB0B46A1
:101E100002463946304610F081FA10F02DFF034695
:101E20006DB110F0D9FB2AA3D3E9002310F02CFCEC
:101E3000254B002210F072FA10F01EFF0346BDEC95
:101E4000028B1846BDE8F883E078A67800F00F0012
:101E500010F0B0FB1AA3D3E9002310F015FC07EE35
:101E6000906AF8EE677A804617EE900A894610F07D
:101E7000B3FB02460B464046494610F04FFA10F0BD
:101E8000FBFE3206034648BF80F00043002DD6D04B
:101E90001846C6E7A678E378300200F4FE401843FF
:101EA00007EE900AF8EEE77A17EE900A10F094FB2E
:101EB00003A3D3E9002310F0E7FBE0E7034BBEE701
:101EC0009A9999999999B93F000040400000C07FC4
:101ED000CDCCCCCCCCCCFC3FD0B50446FFF7E2FE59
:101EE00090B3A3790B3B0B2B2ED8DFE803F006064B
:101EF0002D2D2D2D2D2D2D2D1C1C607810F05AFB15
:101F000014A3D3E9002310F0BFFB064620780F4648
:101F100010F050FB02460B463046394610F0FEF9F1
:101F200010F0AAFED0BD208840BA80B207EE900A19
:101F3000F8EEE77A17EE900A10F04EFB05A3D3E90E
:101F4000002310F0A1FBEBE70148EBE7AFF30080C3
:101F50000000C07F9A9999999999B93F07EE101A94
:101F60004368018840885268484300B97047F3ECE1
:101F7000017A67EE877A0138E2EC017AF5E72DE91C
:101F8000F04F8BB0DDE91469DDE919A71C680D4637
:101F900090464FF0000B1CB920460BB0BDE8F08F07
:101FA000012309932B690893EB680793DAF80C3047
:101FB0000693D9F800300593D8F804300493D8F884
:101FC00000300393AB68189A1699CDE901B32B68DA
:101FD000009330463B4600F00AF8D9F800301E4422
:101FE000DAF80C30013C1F44D5E7002070472DE99A
:101FF000F04F95B04FF0000E089111932499DDF841
:1020000020C0022391FBF3F323990A931E9B1BB27A
:10201000C3EA03430193042391FBF3F30B934B00B7
:1020200002930B9B22999D00229B0029C3F1000380
:10203000C8BF00230393039901238B40013B049302
:102040005B10059301331093279B23995B00099341
:1020500063460B440793431906930B462B44139393
:10206000119B0093229B23EAE37312930A9B9E45E4
:102070004CDB089C029923EAE37303FB0141099CB2
:102080006343249CE4073DD502B112688C46069C4C
:10209000A04240F0E9800B9C2944C0EB8404239EBD
:1020A0000519AE4200F3F280229C219D00214FF0E1
:1020B000804024EAE474A24006460F46C5FB02674E
:1020C000F20F42EA4704229A002ACCBF0A46524243
:1020D00001219140013954FA02F204EA01004FEA69
:1020E000610148BF013188422099C8BF01320A44CA
:1020F00025998A42B8BF0A4626998A42A8BF0A464D
:102100001199CA54002015B0BDE8F08F002A7FD085
:102110001446536854F8081B22460024079EA54223
:1021200004EB060B04EB0C0800EB040673D1139CC4
:10213000069E0CEB0409A5EB060A239F06EB0A0496
:10214000A74200F384804FF080470024CDE90C744F
:10215000129C059FDDE90C89A140219CC4FB0189EB
:102160004FEAD874049944EA4904B846109F04EA37
:102170000106039938EA240828BFB846464544FAC0
:1021800001F14FF080464FF00004CDE90E64129C3F
:10219000059FDDE90E8903FA04F3219CC4FB038942
:1021A0004FEAD874049B44EA4904B846109F04EAF5
:1021B0000306039BC8BF013138EA240828BFB8468C
:1021C00044FA03F34645209CC8BF0133214423440D
:1021D000259CA142B8BF2146A342B8BF2346269CF6
:1021E000A142A8BF2146009C217026998B42A8BF1E
:1021F0000B4627996354099B21461944029B009181
:102200009C440299079B0B440EF1010E07932DE7A6
:102210001346114681E73668019F27FA96FA27FA96
:1022200086F6D8F800802FFA98F92FFA88F829FB5B
:102230000A1128FB0611DBF800802FFA98F92FFA13
:1022400088F829FB0A3328FB0633043466E716F9BD
:10225000014B1E9F18F901BB3C4404FB0B1119F9FB
:1022600001BB04FB0B3368E750F8046B019C24FAB4
:1022700096FE24FA86F65CF8044B2FFA94F72FFAB0
:1022800084F427FB0E2224FB062200E71E9E10F991
:10229000015B354411F9016B05FB0622FFE60000E6
:1022A0002DE9F04F95B0DFF88CA302939DF88030B4
:1022B0001393219B08930023039012910692099394
:1022C0004FF0FF39099B129A934202DB15B0BDE82B
:1022D000F08F039B13F9012B0792039A06999A1A20
:1022E000914200F3A981039B04934FF00008DDE9BC
:1022F00003239B1A069A9A4200F3A681B8F1000FB5
:1023000000F01583B8FA88FE08FA0EF808F10048C4
:102310006FF0004212EB08044FF0000343EBE87546
:102320006E1C05BFB4F1FF3F20460120294618BFAF
:102330000021261845EB0107F90F721847F1000339
:102340005B104FEA3202CDE90023009BB74801330E
:10235000009BC3F10006019B00FB0366009B08BFC6
:102360004FF08044A3FB000116BF544600254D46A4
:102370003144061941EB0507002E77F1000304DA1A
:102380006FF00044002536196F41009BF40F44EABA
:1023900047044FEAD37C0133019B04F15A3404FB18
:1023A00003F5009B4FEAE47103FB015518BF4FF0A2
:1023B0008046A4FB03010ABF564600274F46294426
:1023C000821941EB0703002A194673F100031046F6
:1023D00008DA6FF0004692194FF0000741EB07034F
:1023E00010461946C50F45EA4105D5F1005559BFBC
:1023F0004FF08040002150464946C5FB04010028AB
:1024000071F1000304DA6FF000460027801979416A
:10241000C50F45EA41058649019B8D42ABBF4FF090
:10242000FF30002000264FF0004600EA8500704093
:10243000011901FB03F8C80F009B84454FEAE175C1
:1024400003FB058808BF4FF08046A1FB034516BF7C
:10245000564600274F464544A21945EB07031C4644
:10246000002ACDE9042374F1000309DADDE904341C
:102470006FF000469B194FF000077C41CDE9043412
:10248000049BDE0F059B46EA4306C6F10056B0EBFF
:10249000D67F07BF4FF08044002554464D46C6FB0B
:1024A00001452346002B75F10003CDE9044509DA07
:1024B000DDE904346FF000469B194FF000077C41C2
:1024C000CDE90434049B009ADC0F059B44EA4304E5
:1024D000B4F1005FACBF00204FF0FF3000EA840091
:1024E000ACBF6FF0004500256840514D019BAC42E8
:1024F000ABBF4FF0FF35002500244FF000442840CB
:1025000060400144C80F844501FB03F34FEAE177C3
:1025100002FB073608BF4FF08044A1FB022318BF1F
:10252000544633440CBF00254D46161943EB0507AE
:10253000002E77F1000304DA6FF00044002536190D
:102540006F41F40F44EA4704C4F10054B0EBD47F68
:1025500007BF4FF08042002352464B46C4FB012385
:10256000002A1F4673F10003164604DA6FF0004498
:10257000002536196F41F20F42EA4702B2F1005FBF
:10258000ACBF00234FF0FF3303EA8203ACBF6FF010
:1025900000400020434026488242ABBF4FF0FF304E
:1025A000002000224FF00042034053401944B1F193
:1025B000804FB5BF4FF0FF33002300226FF0004281
:1025C00003EA410353401B4A9142ABBF4FF0FF3136
:1025D000002100224FF000420B4053400C93139B0C
:1025E000002B7FF473AECEF123030A930C9B002BD8
:1025F00080F2A281CDE904A90A9A01239340013B0C
:102600000D935B100E9301330F934FF00008069B60
:102610009845039BC0F2A681069A13440393099B35
:1026200001330993089B134408934BE6C4C3C3C307
:10263000010000E0010000C013F9012B079991424D
:10264000B8BF11460A4647E6049B13F9014B0493B1
:10265000079BE41A1F9BA3423FF749AE1E9B9C4079
:10266000029BDB0FB3EBD47F0BBF00234B464FF035
:10267000804252461E46029B1546C3FB0456002D5F
:1026800076F1000304DA6FF0004000212D184E416E
:10269000EA0F42EA4603029A944204D1B2F1004F93
:1026A00008BF6FF0004343F07F41CA1A490101F1AE
:1026B00080510C46CD17CDE90A454FF080440025E6
:1026C000C1FB0145002C75F1000004DA6FF00046F3
:1026D0000027A4197D41E00F40EA45004FEAE57C60
:1026E00000FB0CF6A0FB004505EB460514F1804607
:1026F00045F10007002E77F10004CDE9006709DA03
:10270000DDE900456FF00046A4194FF000077D4158
:10271000CDE90045009C019D0B9EE40F44EA450471
:1027200004F003054FEAA40E002CB4BF02240124D8
:10273000A5424FEAD174C8BF0EF1010E01FB0CFC9B
:10274000B4EBD07F00FB06CC0CBF4FF08044544666
:10275000A1FB00670CBF00254D46674414EB060B38
:1027600045EB070CBBF1000F7CF1000406DA6FF0BB
:10277000004600271BEB060B4CEB070C4FEADB7403
:1027800044EA4C041EEB040E6E4E59BF4FF08044D9
:10279000002554464D46C6FB0E45002CA34675F158
:1027A0000004AC4606DA6FF0004600271BEB060B70
:1027B00045EB070C4FEADB7444EA4C042044441018
:1027C00002D4C70748BF01340C195F4D59BF4FF001
:1027D0008040002150464946C5FB0401002871F1A4
:1027E000000404DA6FF000440025001969414FEA43
:1027F000D07E4EEA410E0EF1E24E4FF080400021B5
:10280000524DAEF5252EAEF26C7E06460F46C5FB48
:102810000E673546C2F3006CEC0F44EA4704CCF176
:1028200000070CF1FF3C0CEA0E0C2740484D87EAEC
:102830000C0783468C46C5FB07BC5D46C2F3406E61
:10284000EC0F44EA4C04CEF100060EF1FF3E0EEA16
:10285000070E26403F4D86EA0E0683468C46C5FB92
:1028600006BCC2F380674FEADB7444EA4C04C7F14C
:10287000000C013F37400CEA040C374D8CEA070C82
:1028800006460F46C5FB0C673546C2F3C06BEC0F1E
:1028900044EA4704CBF1000E0BF1FF3606EA0C06C2
:1028A0000EEA040E2D4D8EEA060E0F460646C5FBB7
:1028B0000E673546C2F3007CEC0F44EA4704CCF1C6
:1028C00000070CF1FF3C27400CEA0E0C244C87EA71
:1028D0000C0783468C46C4FB07BCC2F340764FEA24
:1028E000DB74754244EA4C04013E2C403E40744087
:1028F000F225C5FB0401C2F38072C00F40EA41001B
:10290000B3FA83F35142013A14405B0908405E1E5A
:1029100060405B42304023F0004358400213C0F354
:102920000B00B0F5006FA8BF01329044DFE44FF018
:10293000200E4FF00048EBE44FF080430024CDE937
:10294000043459E6ABAAAA2A94A8F5707BBEAF63FB
:10295000F2CBA24D6CAC162FA4AA5211B72A580282
:1029600011FE0A0013F90840079BE41A1F9B9C42C2
:10297000C0F295811E9B9C40029BDB0FB3EBD47F82
:102980000BBF00234B464FF0804252461E46029B2F
:102990001546C3FB0456002D76F1000304DA6FF0F0
:1029A000004000212D184E41EA0F42EA4603029AE8
:1029B000944204D1B2F1004F08BF6FF0004343F0DE
:1029C0007F41CA1A490101F180510C46CD17CDE96A
:1029D00010454FF080440025C1FB0145002C75F1E6
:1029E000000004DA6FF000460027A4197D41E00FD3
:1029F00040EA45004FEAE57C00FB0CF6A0FB0045F1
:102A000005EB460514F1804645F10007002E77F1ED
:102A10000004CDE9006709DADDE900456FF0004602
:102A2000A4194FF000077D41CDE90045009C019DB0
:102A3000119EE40F44EA450404F003054FEAA40E96
:102A4000002CB4BF02240124A5424FEAD174C8BFB0
:102A50000EF1010E01FB0CFCB4EBD07F00FB06CCA9
:102A60000CBF4FF080445446A1FB00670CBF00250B
:102A70004D46674414EB060B45EB070CBBF1000F0A
:102A80007CF1000406DA6FF0004600271BEB060B12
:102A90004CEB070C4FEADB7444EA4C041EEB040ECB
:102AA000804E59BF4FF08044002554464D46C6FB2A
:102AB0000E45002CA34675F10004AC4606DA6FF013
:102AC000004600271BEB060B45EB070C4FEADB74B7
:102AD00044EA4C042044441002D4C00748BF0134E7
:102AE0000C19714D59BF4FF08040002150464946A6
:102AF000C5FB0401002871F1000404DA6FF0004402
:102B00000025001969414FEAD07E4EEA410E0EF1D0
:102B1000E24E4FF080400021644DAEF5252EAEF21E
:102B20006C7E06460F46C5FB0E673546C2F3006C49
:102B3000EC0F44EA4704CCF100070CF1FF3C0CEA2F
:102B40000E0C27405A4D87EA0C0783468C46C5FB7E
:102B500007BC5D46C2F3406EEC0F44EA4C04CEF174
:102B600000060EF1FF3E0EEA070E2640514D86EAA2
:102B70000E0683468C46C5FB06BCC2F380674FEA4F
:102B8000DB7444EA4C04C7F1000C013F37400CEA07
:102B9000040C494D8CEA070C06460F46C5FB0C6732
:102BA0003546C2F3C06BEC0F44EA4704CBF1000E8C
:102BB0000BF1FF3606EA0C060EEA040E3F4D8EEAD4
:102BC000060E0F460646C5FB0E673546C2F3007C6F
:102BD000EC0F44EA4704CCF100070CF1FF3C27401E
:102BE0000CEA0E0C364C87EA0C0783468C46C4FB75
:102BF00007BCC2F340764FEADB74754244EA4C04EA
:102C0000013E2C403E407440F225C5FB0401C2F356
:102C10008072C00F40EA4100B3FA83F35142013A97
:102C2000144008405B095E1E60405B4223F0004395
:102C30003040DDE9041258400C9BC0FB0312002910
:102C400072F100030C46154605DA6FF000400021D2
:102C5000241842EB0105E20F0D9BDDE90E0442EA68
:102C6000450203EA02010A9B30EA220028BF2046FF
:102C700042FA03F38142C8BF0133803B13F17F0F57
:102C800008DB7E2B09DC5BB2089A02F8083008F1F9
:102C90000108BCE46FF07F03F6E77F23F4E78023AD
:102CA000F2E700BFABAAAA2A94A8F5707BBEAF6377
:102CB000F2CBA24D6CAC162FA4AA5211B72A58021F
:102CC00011FE0A001FB5089C039400240294079C7F
:102CD0000194069C0094FFF7E3FA04B010BD0020B5
:102CE000704708B503F05EFA002108BD0FB407B5C0
:102CF00004AB4FF4806153F8042B0748019315F09F
:102D0000BFFC002803DD0449044803F087F803B042
:102D10005DF804EB04B0704710130020981A0020EF
:102D200007B50FF059FC0623009302460B460348F3
:102D300003F072F903B05DF804FB00BF981A00209D
:102D400012F0F0BA11F0D4BA12F0F4BA12289ABF05
:102D5000024B53F820000248704700BFBCA7020096
:102D600008A8020070B500238B420DDA5D084457B5
:102D700044F30304D4545C1CA14205D04457D61834
:102D8000241174700233EFE770BD0000F8B51546EA
:102D90001C460022002306460F460FF0DDFE18B148
:102DA00000232B602360F8BD22463046394611F0DF
:102DB000C3F90022104B0FF067FC11F0EFF910F08F
:102DC00013F84FF000420023824273EB010601DA50
:102DD00011F068FA994201BF9042236801332360E1
:102DE000236808BF4FF080401F33BEBF0023002080
:102DF00023602860D7E700BF0000E041F8B5154622
:102E00001C460022084B06460F460FF0CDFE08B9BF
:102E100011F048FA23462A4630463946FFF7B6FFF6
:102E20002368002BF4DBF8BD0000F03F0000000039
:102E30002DE9F14F06460A989946C0F11F0001237B
:102E400003FA00F00F4690460FF0B4FB42460446EA
:102E50000D464B46304639460FF016FC02460B46EF
:102E6000204629460FF010FC0BA3D3E90023DDE92F
:102E70000BAB04460D460FF097FE10B106A5D5E941
:102E800000455B4652462046294601B0BDE8F04F5A
:102E9000FFF7B4BFAFF300800000C0FFFFFFDF41CA
:102EA0002DE9F8430124814604FA00F001388846F0
:102EB00015460FF07FFB0646A5EB09000F46C0F153
:102EC0002003A0F1200124FA03F304FA01F104FA2B
:102ED00000F019430FF0AAFB02460B463046394674
:102EE0000FF0D2FBC8F120030F46A8F1200124FA0D
:102EF00003F304FA01F10646194304FA08F00FF04F
:102F000095FB02460B46304639460FF0E7FC11F0C0
:102F100093F80FF069FEBDE8F8830000C0EE807AF8
:102F200073B504460E46154617EE900A11F080F967
:102F30009FED117A07EE900AF4EEC77AF1EE10FADF
:102F40000FDB9FED0E7AF4EEC77AF1EE10FA08D897
:102F5000FDEEE77A002017EE903A33442B6002B082
:102F600070BD074B009320462569064A064940F28A
:102F70005713A8470120F2E7000000CF0000004FE0
:102F800022A9020086A802000BA90200D1ED037A53
:102F900092ED037A67EE877A73B5F5EEC07AF1EEBB
:102FA00010FA1E460ADA0F4B009304690E4A0F49C5
:102FB00040F24913A047012002B070BD17EE900AFD
:102FC0000FF00AFB0446F0680D460FF005FB0B46B8
:102FD0000246294620460FF081FC069BC3E900010A
:102FE0000020E9E748A9020086A802000BA9020018
:102FF0002DE9F74F0446C86890469A460D460FF0F3
:10300000EBFA0646D8F80C000F460FF0E5FA024638
:103010000B46304639460FF037FBDDE90C9B064680
:103020000F46BAF1000F1CD0DAF80C000FF0D4FAFA
:1030300002460B46304639460FF06EF90646D9F87F
:103040000C0021F000470FF0C7FA02460B4630464D
:1030500039460FF043FC13A3D3E900230FF090FD92
:1030600050B14B46424629462046CDF830B003B019
:10307000BDE8F04FFFF78ABF074B00932046256954
:10308000064A07494FF49E73A847012003B0BDE8E4
:10309000F08F00BFAFF3008061A9020086A8020094
:1030A0000BA902007B14AE47E17A943F2DE9F0436F
:1030B0002DED028B9946137885B0032B0646DDF87B
:1030C000388011D0092B2BD0072B2DD03B4B0093F0
:1030D00004693B4A3B4940F28F13A047012005B0E9
:1030E000BDEC028BBDE8F083FF240025012992EDA1
:1030F000038A17691CD103AADFED330A3946B0EE03
:10310000480A3046FFF70AFF0028E8D1039BAB428C
:10311000ACBFC9F80030C9F80050C8F80040DEE77D
:103120007F246FF07F05E1E747F6FF74274DDDE769
:10313000032924D103AADFED240A3946B0EE480A58
:103140003046FFF7EBFE0028C9D1039BAB42ACBF72
:10315000C9F80030C9F8005003AAF1EE080A394650
:10316000B0EE480A3046FFF7D9FE0028B7D1039BDE
:10317000A342D4BFC8F80030C8F80040AFE7022926
:1031800015D103AAFFEE000A3946B0EE480A3046D0
:10319000FFF7C4FE0028A2D1039BAB42ACBFC9F825
:1031A0000030C9F8005003AAF7EE000AD7E7C9F8C3
:1031B00000500020C8F8004091E700BF83A902003A
:1031C00086A802000BA90200000000000080FFFF9B
:1031D0004B1E1844B0FBF1F0484370470421C0690E
:1031E000FFF7F6BF2DE9F04705469A468846914617
:1031F0000024FFF7F3FFAE6927460C23A64207D051
:1032000003FB040201345268013208BF0137F5E7BD
:103210000B2F10D80C24744307194FF0FF3340F8DC
:103220000480C7E90139CAF80060AB690133AB61BA
:103230000020BDE8F0870120FBE770474068036885
:103240005B691847036953F82100704737B5D0E927
:1032500001422368556900955D6812690B46C16893
:103260002046A84703B030BD406803689B681847F4
:103270008268D2E9043003EBC0030C205B6800FBDA
:103280000130704710B51821044609F0E1F92046D5
:1032900010BD10B484684068134662695DF8044B41
:1032A000FFF7A0BF30B5044DC0E902320023C0E9EA
:1032B0000051C0E9043330BD94A90200002904DBA9
:1032C000914202DA53F8210070474FF0FF30704707
:1032D00070B515460A682946131D12680446FFF7A3
:1032E000EDFF011E05DB236820465B69BDE87040E9
:1032F0001847002070BD70B515464A682946131D51
:1033000012680446FFF7DAFF011E05DB236820463A
:103310005B69BDE870401847002070BD70B5154668
:103320008A682946131D12680446FFF7C7FF011E6D
:1033300005DB236820465B69BDE870401847002024
:1033400070BD0EB403B503A951F8040B019100F050
:1033500005F802B05DF804EB03B070477047002930
:1033600008B501DA10F09EFF03688B42FADD00EB2E
:103370008100406808BD08B508B910F093FF0068E7
:1033800008BD10B5044611B90160204610BD89681A
:1033900051F8042B40F8042B920012F013FBF4E7D1
:1033A000436B10B50BB910F07DFF3C21BDE8104018
:1033B000184700002DE9F04F0E699FB0054688467A
:1033C0000EB910F06FFF4B690593002BF9D084689C
:1033D000794A236812689B6920469847074648B98E
:1033E000764B2C6900934723754A76492846A047B7
:1033F0000120D8E02368744A9B6912684146204640
:103400009847814620B9714B00932C694A23EBE71A
:1034100023686F4A9B691268414620469847236893
:103420006C4A0490DB691268414620469847824600
:1034300020B9694B00932C694F23D5E738789AF867
:103440000030834213D02C69FFF780FC06469AF8BF
:103450000000FFF77BFC614B0193614B0093CDE9CA
:1034600002605123564A5F492846A047C0E74946B3
:103470000CA80DF1480BFFF784FF51465846FFF7A3
:1034800080FF0C9ADDF84880013A11460CA807929B
:10349000FFF765FF0123CDE9093308F1FF33194632
:1034A000089058460693FFF75AFF079A0B9011466B
:1034B0000CA8FFF754FF069B7063002B81DB0022F2
:1034C0000121DC46904508D0934216BF0CEB8200E8
:1034D0000120406801324143F4E731635846194600
:1034E000FFF73DFF4FF0FF33F362059BB0631978A0
:1034F000049B3A782846CDE90093CDE902A63B46E5
:1035000000F062F900284ED13B78072B3FF470AFF2
:10351000092B0BD1394618A8FFF733FFA8F1020396
:10352000022B3FF64EAF08A8FEF75FFD99F800307A
:10353000122B804619D1D9F8081051F804BB19A8EC
:103540004FEA8B0212F03EFA0023012118A89B4596
:1035500003F1010204DD50F8223059431346F6E727
:10356000EB6B06F1200228469847B8F1000F12DCF9
:10357000236851465B6A20469847236839465B6A50
:1035800020469847236849465B6A20469847049B33
:1035900063B9002007E0EB6B06F12C024146284698
:1035A00098470028E4D01FB0BDE8F08F2368049945
:1035B0005B6A20469847ECE7ECAC02004CAB02009B
:1035C000C2AA02000BA90200F4AC02005DAB02002B
:1035D000E8AC0200F0AC02006FAB02009BAB020053
:1035E000A8AB020081AB020013B500230093044A8C
:1035F000044B0549044600F01CF9204602B010BDFA
:10360000B533010039370100A13301002DE9F04F36
:10361000ABB080460D4624A8DDE934419A46934676
:1036200000F03FF9249B023B022B01D910F03AFE37
:103630006A6B296B2B680B93CDE91222AA6B6B681E
:103640000C930F910123CDE91A21E96A1E92CDE96D
:103650001033CDE91433CDE91623CDE91833CDE984
:103660001C3300239942CDE90D3304DBD8F84030F8
:10367000404698470D9004B124686B695B421F93E4
:10368000EB692193AB6822934FF00009EB68239319
:103690005846CDF88090FFF76EFE09905046FFF730
:1036A0006AFE05463598FFF766FE17AE099B069041
:1036B0001BAFCDE9025613AD0093CDE90447019548
:1036C0000FAB0BAA1FA90DA8FEF759FC40B3D8F801
:1036D000103009935846FFF74EFE83465046FFF7D9
:1036E0004AFE82463598FFF746FECDE90364CDE9F0
:1036F00005700FAB0BAA1FA9CDE9015ACDF800B098
:103700000DA8FEF73CFC084B0193084B0093CDE954
:103710000209F9234046064A0649099CA0470120B0
:103720002BB0BDE8F08F00BFCEAB0200C0A90200F5
:10373000C2AA0200B4AB02002DE9F0434B6987B086
:1037400004460D460BB910F0ADFD1B4B1A6800F096
:1037500098F81A4B29461A680646204600F091F858
:10376000174B29461A688146204600F08AF8154B07
:10377000294607461A68204600F085F82D698046DC
:10378000002DE0D04B462A6A214603A800F09AF8A3
:10379000337A092B0ED19DF81430092B0AD1CDE9CB
:1037A000007803AB324629462046FFF72FFF07B0CB
:1037B000BDE8F0830120FAE7ECAC0200F4AC0200B3
:1037C000E8AC0200F0AC02002DE9F04F85B0012A10
:1037D000804689461F460E9EDDE9105427D004AB73
:1037E0004FF0000A4FF0000B63E902AB3246CDE91F
:1037F000005339460F9BFFF7FBFBA8B9DDE9020137
:10380000231D2246FFF7C2FA3B6963613369A36156
:103810002B69E36104F10C0300932A4604F10803C9
:1038200049464046FFF742FC05B0BDE8F08F002056
:10383000FAE710B501600299C3600023C0E90112E4
:10384000C0E90433C0E90633036210BD70B508B99E
:1038500010F028FD0029FBD00B681946002A51F80A
:10386000045B0CDB95420ADD51F82210002906DBCF
:1038700003EB8203BDE87040026D596810470020D9
:1038800070BDFFF7E3BF10B508B910F00BFD0029BC
:10389000FBD04B6803EB8202BDE81040036D51681A
:1038A000184710B5044609B1496819B900232360C7
:1038B000204610BD51F8042B40F8042B920012F062
:1038C00081F8F5E72DE9F0411D461B7A122B0446DD
:1038D00086B0084607D095E8070084E80700204630
:1038E00006B0BDE8F0810B6C1146984729460646A4
:1038F0006846D5E90087FFF7D4FF0098002301212F
:10390000834203F1010204DA5DF822305943134681
:10391000F6E732464046FFF725FA0923C4E9006777
:103920002372DCE7436B10B50BB910F0BBFC4021F0
:10393000BDE8104018477FB500220D460646FFF748
:10394000A0FF2946044600223046FFF79CFF296964
:1039500009B910F0A7FC237A092B11D1037A092B9E
:103960000ED1036802938B690193CB6800938B6837
:103970002068D1E90E12FFF7A5F9002004B070BD50
:103980000120FBE72DE9F04F0B6893B004460F468A
:1039900013B11A68012A13D0266903B11B680125E7
:1039A000CDE90235584B0193584B00933423204600
:1039B000574A5849B0472C46204613B0BDE8F08F0F
:1039C0004B6813B11E68012E0BD0266903B11B682A
:1039D0000125CDE902354C4B01934F4B0093352324
:1039E000E5E785682B6800229B6928469847804652
:1039F00048B94A4B0093256937232046444A484931
:103A0000A8473446D8E783681B68002B04DC454B85
:103A1000009325693823F0E72B680022DB693946DB
:103A200028469847814620B93F4B009325693A23A1
:103A3000E3E7D7F810A0BAF1000F04D13B4B009395
:103A400025693C23D9E7CDF800A07B6902464146B1
:103A5000204600F07FF8D8F8081051F8043B069390
:103A60009A00044607A8049311F0ACFFD9F8081097
:103A700051F8042B0C920DA8920011F0A3FF049BA7
:103A8000002703F1FF3B9F4213DABB450FD03946B5
:103A900006A80593FFF763FC394604900CA8FFF7CE
:103AA0005EFC049A059B824201D010F0FBFB0137BB
:103AB000E9E7BBF1000FF8DB002293451CBF06A924
:103AC00001EB820102F1010214BF49680121934216
:103AD00001FB06F6F1D1594606A8FFF740FC59460E
:103AE00007460CA8FFF73BFC8742DED12B68414616
:103AF0002846CAE90E675B6A98472B6849465B6AA5
:103B00002846984758E700BF4BD102007AAD020023
:103B1000F8AC0200B4AB02008AAD02004CAB02006C
:103B20000BA902009BAD02006FAB0200B5AD020015
:103B300013B500230093044A044B05490446FFF7DC
:103B400078FE204602B010BD8539010037390100EA
:103B5000253901002DE9F04D0D7888B0092D044676
:103B60000E469846109F0AD007692846FFF7EEF8E0
:103B700033784F4902462046B847012095E0117836
:103B8000072939D1116911F5004F0CD0494BCDE906
:103B90000213494B0193494B009304696E23484A31
:103BA0004849A047E9E7DFED487A92ED037ADFED77
:103BB000476AB4EEE77AF1EE10FACCBF77EE677A97
:103BC00077EEC77AF4EEE67AF1EE10FA4ADD404B72
:103BD000002217EE100ACDE904230EF0FDFC3D4B48
:103BE0000193CDE902013C4B00932569344A3B49DE
:103BF00070232046A847C0E7092913D00669084664
:103C0000FFF7A4F807462846FFF7A0F8344B0193C6
:103C1000344B0093CDE902707223294A3249204681
:103C2000B047AAE7116911F1800F0AD06FF07F0346
:103C3000CDE902132D4B0193204B009304697323AC
:103C4000ADE792ED037ADFED2A7AB4EE677AF1EE12
:103C500010FA07D0274B00930469194A26497423A8
:103C6000A0478AE7F0680EF0B7FC8246D8F800005B
:103C70008B460EF0B1FC07AB0293052407F1080355
:103C8000019352465B460094FFF7D2F80799F9601A
:103C90001F222046FFF704F90EF08CFC01F10043CF
:103CA00019460EF0A1FFB861002008B0BDE8F08D04
:103CB000D0AD02000080FFFF75AE02007CAE0200B6
:103CC000ECAD0200B4AB0200000080376F1283320B
:103CD0000000F03EB6AE0200C2AE020096AE020098
:103CE000D7AE02009BAB020081AB0200E3AE020044
:103CF0000000803BE8AE02000BA90200044B1B68E9
:103D00008B42A3BF034B03EBC101486800207047FF
:103D10005819002008190020084A47F6FF73A2F836
:103D20004030A2F88430A2F8C830A2F80C31044A1E
:103D30009381938393859387704700BFB8170020C2
:103D4000C8180020044B1B689942DDBF034B03EBEE
:103D5000C101486800207047581900200819002048
:103D600070470000F8B5184B184C1A68184B53F8F8
:103D7000223026460B4447F6FF7700210A01A0189F
:103D8000B0F90C509D4216D0BD4215D11821114DED
:103D900059436C18695C67780772022908BF0E499D
:103DA000A76808BF096864684760324406BF0919FC
:103DB000016004609381F8BD01310429DED1074818
:103DC000FEF794FF0020F6E75C170020C8180020DB
:103DD00094B30200D8020020101700205CB3020048
:103DE0000020FFF7BFBF000010B5034B036004467F
:103DF000FFF723FA204610BDE4B4020010B50446D4
:103E0000FFF7F2FF2046182108F022FC204610BDE3
:103E100030B5174A182444430B4611194D781D70CC
:103E2000002583F82D50155DCC689C61022D8C68AF
:103E30009C604C680ABF0F495C6009681D7504BF2F
:103E400009195960182101FB002202F1100103C970
:103E500003F1300484E8030093F83010012906D1FF
:103E600052691168526849685268D9601A6130BD58
:103E7000D802002010170020114B1A68114B70B5A2
:103E800053F82250104A0D444420002147F6FF7693
:103E900000FB0124B4F94030AB4207D0B34207D154
:103EA00021462846FFF7B4FFA4F84050204670BDD5
:103EB00001310429ECD10548FEF718FF0024F5E78D
:103EC0005C17002094B30200B817002024B302004E
:103ED0000020FFF7D1BF000011F00F0318BFC3F19E
:103EE0001003194A70B50B440D4618491468096847
:103EF000E31A99421CD9164E3368092B06D9294674
:103F00001448FEF7F3FE0024204670BD0121284628
:103F1000FEF718FF044620B929460F48FEF7E6FED3
:103F2000F2E733685A1C32600C4A42F82300EBE790
:103F3000641B0F3C24F00F041034146000212A4647
:103F4000204611F03DFEDFE72C1900202819002043
:103F50005C1900209CB3020019B402003019002043
:103F60000020FFF7B9BF000070B50E4C2368032B8B
:103F70000D46164604D90C48FEF7B8FE012070BD68
:103F8000FFF7AAFF10B929460848F5E72368084952
:103F900001EBC30241F833505060336001332360BA
:103FA0000020ECE7581900204FB40200A7B402002B
:103FB000081900200020FFF7D7BF00002DE9F04FBF
:103FC0000346A3B04FF4B87110209847514B1860C6
:103FD00038B95148FEF78AFE0125284623B0BDE8CE
:103FE000F08F4E4C4E4D2060002300F5B8700DF15F
:103FF00030081A46286019464046FFF753F9494BE6
:104000000C93494B494A5A63494ADA63494A1A644C
:10401000494ADA64494A1A65494A1A61494FC3F85C
:1040200008800B221A6000264FF0180912A93046AA
:10403000FFF7EEFE9DF85C30022B08D109FB0673FA
:10404000DA68139B13442268934288BF23600136C9
:104050000B2EEBD122682B689A4207D93A48FEF71B
:1040600045FE01254046FFF7BFFEB6E702A802AFB6
:10407000FFF7BAFA0FCF354CDFF8DC90DFF8D4A0A9
:10408000DFF8A4B00FC40FCF0FC426463B6846F834
:10409000043B02A802ADFFF74BFD0FCD0FC60FCDBD
:1040A0000FC63B6833602A4E002535604F46203CE2
:1040B00015F80A2024235343E35823B100227969D9
:1040C0005846984738610135042D07F12807EFD18C
:1040D0000023154F33609B464FF0280A24231D4AC6
:1040E00012F80B2003FB024295683DB90BF1010B5E
:1040F000BBF1040FF3D100253560B3E70193FFF75F
:104100000BFE0AFB0B913846A847019B0546002889
:10411000ECD0A7E7101700200AAF020028190020F2
:104120002C190020E4B4020060170020D93E0100E1
:10413000693F0100FD3C0100793E0100653D010041
:1041400043330100D802002030AF020014170020D2
:104150005C17002020B30200E003002008B5002017
:10416000FFF756FE002008BD08B50A20FFF750FEF5
:10417000002008BDF8B50A4D0A4E0B4F0024FFF78A
:10418000CBFDE35D0948242202FB03632821DB68A1
:1041900001FB0451984710B90134042CEFD1F8BD4C
:1041A000E00300201417002020B302006017002055
:1041B0000A4A70B503461068094D0A4E98470A4BE3
:1041C00000241C602B68A34205D956F82400FEF792
:1041D000BBFD0134F6E70020286070BD10170020F9
:1041E0005C1900203019002058190020084B1A686B
:1041F000084B02F120015960C3F8C41002F110010C
:10420000C3F8AC20C3F8DC10C3F8F420704700BF3B
:1042100010170020D802002030B5A1F110040025AD
:1042200000F00F02D3B2092ACCBF373330338B737F
:10423000CD7302398C424FEA1010F1D130BD2220EB
:104240007047000030B5012185B0192002F058F800
:104250000121192002F098F84FF080430022C3F8A2
:104260005C2503F588334FF48032C3F848230121DD
:10427000C3F80823212002F043F80121202002F096
:104280003FF80121212002F07FF80A2001F096FF7B
:104290000121202002F078F8212001F057FF1F288B
:1042A00086BF00F01F00154B4FF0A04300F5E070F3
:1042B00040F2033243F82020114B01221A60114AC8
:1042C0001368002BFCD0104B0024C3F80045C3F842
:1042D00000450E4B0FCB6D4685E80F002346204668
:1042E0004FF0FF3155F823200133042BC2F80005AD
:1042F000C2F86015F6D105B030BD00BF0003005014
:1043000004200040442100400020004010B502007D
:1043100038B54FF0805504462146D5F8A800FFF780
:104320007BFFD5F8A40004F11001FFF775FF2020F2
:1043300038BD000072B64FF08043B022C3F81C2590
:10434000BFF34F8F0549064BCA6802F4E06213437E
:10435000CB60BFF34F8F00BFFDE700BF00ED00E073
:104360000400FA0510B50446FCF75BF8204610BDC2
:104370000020704770B590F8303105461446F3B907
:104380000368DB69984704F47063B3F5407F04F079
:10439000F0030CBF0721082104F00F02302B0CBFE3
:1043A00002230123012A08D0901E42424241A869FB
:1043B000BDE87040006804F014BC0222F7E770BD4D
:1043C00010B590F8303104462BB9A369186804F091
:1043D0005FFC0028F9D010BD38B590F83051044684
:1043E000A5B983695BB1186848B10368DB68984771
:1043F000A3691D600421A06908F02AF9A5610023C2
:10440000C4F82431C4F82831C4F82C3138BD13B5B0
:1044100090F8303104466BBBA369186804F0F8FBD0
:1044200040B307F09DFBA3691868036801225B692C
:104430000DF107019847D4F82C31B3F5807F16D0E1
:10444000D4F82C31B3F5807F11D0D4F824319DF805
:104450000720234483F82420D4F824310133DBB22D
:10446000C4F82431D4F82C310133C4F82C3107F0CE
:104470008DFBD1E702B010BD08B590F830313BB1EB
:10448000012001F09BFE0648BDE8084001F0E5B9B7
:1044900082691AB11368003318BF0123184608BD9A
:1044A0006021002070B504460D4601F0D6F930B108
:1044B0002368294620461B6CBDE87040184770BD34
:1044C000A0F5A070EEE7000013B590F830318DF83C
:1044D000071004462BB1C9B20B48FFF7E3FF02B047
:1044E00010BDA369186804F0D3FB0028F9D0A369B4
:1044F0001868036801221B690DF107019847013014
:1045000018BF0120EBE700BF602100202DE9F0413A
:1045100007468846164601F0A0F970B10024A6426D
:104520000CD9351B402D28BF402508EB04012A4635
:10453000384600F0F1FE2C44F1E704462046BDE881
:10454000F081A0F5A070E1E770B590F83031054634
:104550000E4614462BB11048FFF7D8FF04462046FC
:1045600070BDAB69186804F093FB0028F9D0AB6903
:104570001868D0F8083101211B6B00F5847098474A
:10458000AB691868036822461B69314698470130B9
:1045900008BF0024E3E700BF6021002030B50446D7
:1045A000C3B001F047F9D4F85832C3F5807398428C
:1045B0000546C4BFD4F85852C5F580752A4601ABEC
:1045C00002A9204600F092FF019902AB6D1A002269
:1045D0001D44D4F85832B3F5807F19D08A4217D0E1
:1045E000D4F85832B3F5807F10D0D4F85032A85C9C
:1045F000234483F85001D4F850320133DBB2C4F8BD
:104600005032D4F858320133C4F858320132E0E75E
:1046100043B030BD38B5044600F07EFB2046FFF7BE
:10462000BDFFD4F85852204600F07EFB284638BD26
:10463000A0F5A070EEE7000010B590F83031044608
:104640002BB10648FFF7E6FF0446204610BD07F0F1
:1046500087FAD4F82C4107F099FAF6E76021002098
:1046600038B5044600F058FB2046FFF797FFD4F812
:1046700058324BB1D4F85432234493F85051204669
:1046800000F052FB284638BD4FF0FF35F7E7A0F5A4
:10469000A070E5E710B590F8303104462BB10B4817
:1046A000FFF7DEFF0446204610BD07F059FAD4F8A4
:1046B0002C313BB1D4F82801044494F8244007F08D
:1046C00065FAF0E74FF0FF34F9E700BF6021002002
:1046D00038B5044600F020FB2046FFF75FFFD4F812
:1046E0005832A3B1D4F85432234493F85051D4F83B
:1046F00054320133DBB2C4F85432D4F85832013B9F
:10470000C4F85832204600F00FFB284638BD4FF061
:10471000FF35F7E7A0F5A070DAE7000010B590F8D4
:10472000303104462BB11148FFF7D2FF0446204632
:1047300010BD07F015FAD4F82C319BB1D4F828310C
:10474000234493F82400D4F828310133DBB2C4F8B1
:104750002831D4F82C31013BC4F82C31044607F041
:1047600015FAE4E74FF0FF34F9E700BF60210020BD
:1047700008B54FF48072002111F022FA0022C0F82F
:104780000021C0F80421C0F8082108BD10B4D0E908
:10479000003409686210E40701EB020048BF8A5840
:1047A0005DF8044B48BFD358184708B5014604309C
:1047B000FFF7ECFF08BD0000034AC260034607C9CB
:1047C00083E80700704700BF20B5020010B586B02F
:1047D00004460391684606A980E80C0001E90C0034
:1047E000204603A9FFF7E8FF204606B010BD37B505
:1047F0006C4684E80C0094E80C000546FFF7E6FFE1
:10480000284603B030BD000070B590F8303186B056
:1048100004460D46002B37D1866926B9042007F0DF
:10482000EBFEA0610660A369186878BB4FF4867040
:1048300007F0E2FE2B4694F9212094F92010064659
:1048400004F032FDA3691E6094F92220531C06D0A7
:10485000A06994F923300068032104F035FDA369B1
:104860001D688DB10B4B0093002601966B460CCB57
:10487000214602A8FFF7BBFF2846324602A904F0F2
:104880008BFA02A8FFF76EFD06B070BD294604F052
:1048900094F9D9E70F44010008B5FFF786FF08BD7A
:1048A00008B5FFF7F9FF08BD2DE9F047194C1A4F7D
:1048B000276000254FF47A78C4E90158202604F1D6
:1048C0002400C4E90565E5614FF00109FFF750FFD9
:1048D000284684F8309101F039FC8246484601F0C0
:1048E00035FC0E4CFF2384F82100C4E9015804F183
:1048F00024002760C4E90565E56184F820A084F8F8
:10490000223084F82330FFF733FF84F83051BDE8BC
:10491000F08700BF981A002034B502006419002007
:10492000002070477047704710B5D0F88C452CB107
:1049300023682046DB6A9847A468F8E710BD38B5BD
:10494000D0F88C450D4634B123682046DB682946F3
:104950009847A468F7E738BD00487047F4B50200EF
:1049600010B5054B0360044605F0FFFE204606F037
:104970000DF8204610BD00BF74B5020010B5044606
:10498000FFF7EEFF20464FF4B26107F061FE2046CC
:1049900010BDF7B5D0F88C4505460E460023A4B1EE
:1049A000236831461F690DF1030201AB2046B84769
:1049B0009DF803100429034605D0019A284605F006
:1049C000E3F903B0F0BDA468E9E7019A9DF803108C
:1049D000F4E770B505460E4622B10021BDE87040EF
:1049E00004F0DEBFD0F88C455CB1236800225B691F
:1049F00031462046984710B101212846EEE7A468C9
:104A0000F2E72146F9E770B5D0F88C450E46054629
:104A100000213CB12368314620469B699847A46831
:104A20000146F6E72846BDE8704005F0ADB8F8B598
:104A3000D0F88C4505460E4617463CB12368204603
:104A4000DB693A4631469847A468F6E728460121D3
:104A5000BDE8F84005F0F6B870B5002186B0044610
:104A600005F0DDFA0023ADF8063023898DF810300B
:104A70001B0AA188E2888DF811304FF4897540F245
:104A80000123ADF80450ADF81230022540F20313B3
:104A9000EF268DF807508DF809508DF80C10012580
:104AA000090A8DF80E20ADF81430120A04F10A0339
:104AB0008DF808608DF80A508DF80B008DF80D10F8
:104AC0008DF80F2001AD05AE1C462A4603CAB2423E
:104AD00018605960154603F10803F6D112881A8050
:104AE000204606B070BDF8B5002406460D462746A0
:104AF000304611F045FCA04207D9335D05F814306B
:104B000005EB440301345F70F2E7400000F0FE0063
:104B1000F8BD38B5D0F88C55044635B12B68284619
:104B20005B6A984710B9AD68F7E7284640F2023350
:104B3000A4F8483504F24A51FFF7D5FF94F84835F8
:104B4000184484F8480504F5A96038BD40F20233E2
:104B500010B500F20A510446A0F808350548FFF7E1
:104B6000C2FF94F80835184484F8080504F5A160DC
:104B700010BD00BF60B5020040F2023310B504461C
:104B8000A0F8C83400F2CA40FFF7C2FB94F8C8345A
:104B9000184484F8C80404F5996010BD2DE9FF415C
:104BA00000238DF80A3090F888351B4A8DF80830BC
:104BB000012301928DF809303222C0238DF80B3089
:104BC0008DF80C2001AB044600F54E7803CBC4F8F9
:104BD0003803C8F8041088F80820D4F88C65092533
:104BE0008EB1336800219B6830469847478805F5A9
:104BF0004E73093F00F109013A46E01810F0E2FE59
:104C00003D44B668ECE784F83A5340462D1284F8E8
:104C10003B5304B0BDE8F0810902FFFF73B50446C1
:104C20000D46164608F044FA4FF48073009301468F
:104C300033462A46204605F065FE024B2360204697
:104C400002B070BD74B5020010B5D0F88C350446C2
:104C5000A3B9C0F88C1594F888350B7194F8883591
:104C60004A79134484F888350B6808469B6A98474C
:104C7000238918442081012010BD13469A68002A18
:104C8000FBD19960E7E71FB5044605F0C3F901467B
:104C9000684604F0E1FB4021684604F04FFCD4F87C
:104CA0008C4534B1236820461B6A69469847A4683E
:104CB000F7E7684604F0D7FB04B010BD10B5044612
:104CC000FFF7E1FF2046BDE8104005F08AB900007B
:104CD00010B50D4C2378BFF35B8FDB0712D4204651
:104CE00007F092FA70B148F25A0242F24131074895
:104CF000FFF794FF204607F0A9FA054A0549034843
:104D000007F06FFA014810BDCC1B0020D01B00201B
:104D1000000200206149010010B5FFF7D9FF0368C8
:104D2000BDE810405B6F184710B5FFF7D1FF03686F
:104D3000BDE810409B6F184710B5FFF7C9FF036827
:104D4000BDE81040DB6F184704F00ABD04F01EBD3B
:104D500004F0F6BC704770477047436A93F87800D8
:104D60007047D0F824017047012070470048704711
:104D70005CB702002DE9F04F044697B00F464B2276
:104D8000002103A810F01CFFD4F82431267994F8F0
:104D90000EA094F80C90002B06F10105637B0193A3
:104DA00014BF05200020EDB2002F40F0978040F2A4
:104DB0000923ADF80C304FF48173ADF81030802327
:104DC0008DF8133032238DF8143008238DF8153008
:104DD0000B2301218DF816308DF8250040F20223B7
:104DE00042F205404FF0240C4FF0090E04274B22ED
:104DF000ADF818308DF8211002238DF82410ADF88D
:104E000026004FF0100805208DF82A108DF82D107F
:104E10008DF82F104FF0030B06218DF80E208DF822
:104E200017608DF81A308DF81DE08DF81F608DF831
:104E300022308DF823308DF82B008DF82CC08DF8A2
:104E400031C08DF832308DF833108DF834008DF884
:104E500035C08DF81E708DF829808DF82EB08DF834
:104E600030708DF8361007218DF839108DF8491003
:104E700044F20201ADF84C1040F20751ADF8501069
:104E80001D349DF804108DF837608DF838508DF87A
:104E90003A008DF842508DF84A008DF852108DF886
:104EA000533044F20306402340F6022503A920466E
:104EB0008DF83BA0ADF83C608DF83F808DF840E068
:104EC0008DF84170ADF844508DF84B908DF854300A
:104ED00010F078FD204617B0BDE8F08F0020FAE70B
:104EE00038B505460A4B45F8D03B0446FFF7F0FEBF
:104EF00005F03BFC284604F0BBFB04F17C0004F009
:104F0000B7FB04F1700004F0B3FB204638BD00BFCE
:104F10001CB7020010B50446FFF7E2FF20464FF42D
:104F2000947107F095FB204610BDFFF705BF000008
:104F300010B5034B0360044604F056FA204610BD3A
:104F40003CB6020010B50446FFF7F2FF20462821C8
:104F500007F07EFB204610BD10B5034B03600446EE
:104F600004F042FA204610BD0CB6020010B504460B
:104F7000FFF7F2FF2046342107F06AFB204610BD00
:104F800010B5034B0360044604F02EFA204610BD12
:104F900024B6020010B50446FFF7F2FF2046382180
:104FA00007F056FB204610BD38B51C4B0D4619685E
:104FB000C0F80F1099889B7943750446A0F8131028
:104FC00040220221284604F0AFFA40222073022139
:104FD000284604F0AEFA402260730321284604F00C
:104FE000A3FAA073284604F03FFA20B9AF220C4977
:104FF0000C4806F005FD002304F18502C4E93223C4
:1050000004F1D90284F8783084F8843084F8D830F8
:10501000C4F81C21C4F8203138BD00BF58B60200C6
:10502000F6B6020001B702002DE9F34104460E4630
:105030001546FFF781FEF28823799A4237D1002D79
:1050400035D17778012F2ED1F378202B27D13289D3
:10505000072A24D104F10F0804F116052946404619
:1050600010F07EFCD0B1D4F81630C4F80F30207C9C
:10507000E17B638BA4F8133001EB0021607CE57CBD
:10508000237F009501EB00412568A07C637501EB4F
:105090000061237D627D6D6B2046A8473D46F37815
:1050A000212B08BF0125284602B0BDE8F08100256C
:1050B000F9E710B50446FFF73FFEFFF709FE217B35
:1050C00005F0F0F904F18503C4F8C8300023C4F8F2
:1050D000CC3084F8843004F17C0004F07EFA94F83B
:1050E00084302BB923682046DB6BBDE8104018479D
:1050F00010BD000070B50446FFF71EFED4F8205125
:105100002DB140F2DD120F490F4806F079FC04F191
:10511000D903C4F81C31FFF7DBFD617B05F020F9F2
:1051200084F8D850C4F8200104F1D00004F055FAF6
:1051300094F8D8302BB9236820469B6BBDE87040AB
:10514000184770BDF6B6020064B6020038B50223F7
:105150004371002383600C4B044640F8703B1546B6
:1051600004F02EFA04F17C0004F02AFA04F1D000D5
:1051700004F026FAC4F82451FFF7AAFD2146FFF7F0
:1051800063FD204638BD00BF1CB7020070B5044661
:105190000D46FFF7D1FD84F87850002D3ED194F8EC
:1051A000843033B1FFF794FD217B04F053FF84F882
:1051B000845004F1850304F17C0600253046C4F8D0
:1051C000C830C4F8CC5004F008FA304604F0FEF9B8
:1051D00028B9154915484FF4A27206F011FC94F84D
:1051E000D83033B1FFF774FD217B04F033FF84F82E
:1051F000D85004F1D903C4F81C3104F1D0050023C0
:105200002846C4F8203104F0E8F9284604F0DEF915
:1052100020B94FF4A77204490548DEE704F1700095
:10522000BDE8704004F0D9B9F6B6020072B60200CB
:1052300083B6020010B50446FFF77EFD204600212C
:10524000BDE81040FFF7A2BF38B50D460446FFF792
:1052500073FD042D05D020460021BDE83840FFF73E
:1052600095BF38BDF8B5164604460D461F46FFF7F4
:1052700063FD04233370EA8823799A4225D1697843
:10528000012922D1EA78212A08D0222A0BD0202A0B
:105290004FF000001BD13070163401E031700F3434
:1052A0003C600720F8BDAB8813F0010308BF194626
:1052B0002046FFF76BFFAB8803F00103E366AB8882
:1052C00003F00203A366022333700020EAE70323FE
:1052D0003370E7E710B58AB00446FFF71DFD684656
:1052E00004F072F80A4B0093694604F170000994C7
:1052F00004F08BF92046FFF717FD064B00211A68D2
:10530000684604F027F86846FFF712FE0AB010BDA1
:105310003CB6020060B6020070B58EB01546044679
:105320000E46FFF7F9FC01A804F04EF80E4B0C9561
:1053300001A9002504F17C000193CDE90A468DF80E
:10534000345004F062F92046FFF7EEFC074B294683
:105350001A6801A803F0FEFF01A89DF83440FFF78A
:10536000FBFD20460EB070BD0CB6020060B6020018
:1053700010B50446FFF7E0FC94F884307BB9D4F80C
:10538000CC3063B1FFF7A4FCD4F8CC30217B04F11E
:10539000850205F025F810B1012384F8843010BD92
:1053A0002DE9F8431E460446894690469DF8207034
:1053B000FFF7B2FC0023336094F87830E3B194F83F
:1053C0008430CBB9D4F8CC50C5F14005454528BF51
:1053D0004546B8F1000F05D02A464946D4F8C80022
:1053E00010F0F0FAD4F8CC302B44C4F8CC3035604F
:1053F00017B12046FFF7BCFF2046BDE8F843FFF792
:1054000093BCF0B50446406A90F8785085B0012608
:105410002DB984F830503546284605B0F0BD04ABB0
:10542000002743F8047DD4E90A120096FFF7B8FF7D
:105430000399E36AA26A5B1A0A44E362A26213B99F
:1054400084F83060E8E7606AFFF792FF3D46E3E7E3
:105450002DE9F0431C4691B0904606468946FFF779
:105460005BFC002C08BF01AC4FF00005256002A8D2
:105470000CBF0127002703F0A7FF104B029302A9DE
:1054800006F1D000CDE90D84CDE90B698DF83C70B3
:105490008DF83D5004F0B9F83046FFF745FC084B55
:1054A00029461A6802A803F055FF02A89DF83D405E
:1054B000FFF766FD204611B0BDE8F08324B6020078
:1054C00060B6020010B5D0F8203104466BB990F8F0
:1054D000D83053B9FFF7FCFB402304F1D902617BBC
:1054E00004F0E0FE012384F8D83010BD70B51E46EC
:1054F00004460023336094F878300846EBB194F802
:10550000D830D3B9D4F82051D4F81C11954228BF13
:1055100015462A4610F056FA3560D4F81C31D4F8F6
:1055200020212B44551BC4F81C31C4F8205125B947
:105530002046BDE87040FFF7C5BF70BD37B50446D3
:10554000406A90F878502DB984F8355001252846E6
:1055500003B030BD02AB002243F8042DD4E90A1297
:10556000FFF7C4FF0199A26A0A44A262226B136882
:105570000B441360E36A01995B1A94F83410E362F8
:1055800009B9126802B91BB9012384F83530DEE786
:10559000606AFFF797FF0025D9E710B500210446A0
:1055A000FAF72EFF204610BD10B50446FFF7F5FFB1
:1055B000204610BD10B4D0E9003409686210E40739
:1055C00001EB020048BF8A585DF8044B48BFD3582E
:1055D000184708B501460430FFF7ECFF08BD00008E
:1055E000034AC260034607C983E80700704700BF4B
:1055F0004CB6020010B586B004460391684606A971
:1056000080E80C0001E90C00204603A9FFF7E8FF41
:10561000204606B010BD37B56C4684E80C0094E80F
:105620000C000546FFF7E6FF284603B030BD00003A
:105630002DE9F0418AB00546FFF77EFBFFF748FBF6
:1056400006ACAF7B064600212046FFF7ADFF39468A
:10565000032340220094304605F0EAF82046FEF786
:1056600081FEFFF735FB00261D4B95F80C80029359
:10567000039602AB07460CCB29462046FFF7CBFF2B
:105680004146022340220094384605F0D1F82046D6
:10569000FEF768FEFFF71CFB124B95F80D80CDE975
:1056A000043604AB07460CCB29462046FFF7B3FF70
:1056B0004146022340220094384605F0B9F82046BE
:1056C000FEF750FEFFF704FB4023D5F81C21697B51
:1056D00004F0E8FD012085F8D8000AB0BDE8F081AB
:1056E000B3500100F550010008B5FFF772FF08BD87
:1056F00008B5FFF7F9FF08BD6FF0150070470029E6
:105700000CBF6FF0180000207047012070476FF049
:10571000150070476FF015007047112070477047F3
:105720007047704703689B6C1847A0F5A070F9E7B5
:10573000704770477047704710B50446012000F06D
:105740003DFD94F8780010BDA0F5A070F4E70000CE
:1057500038B54FF0FF320123FF210B480B4D07F006
:1057600001F900F00DFD044695F878301BB10120D9
:1057700000F024FDF8E700F003FD001BC728F6D970
:10578000BDE83840FEF7D6BD182400206021002077
:1057900007B502AB012243F8041D1946FFF7BCFD13
:1057A00018B1019803B05DF804FB4FF0FF30F9E742
:1057B000A0F59470FFF7ECBF07B502A9002301F82C
:1057C000013D0122FFF744FE20B19DF8070003B020
:1057D0005DF804FB4FF0FF30F9E7A0F59470FFF798
:1057E000EBBF2DE9F8430446884617461E46089D40
:1057F000FFF7A2FAD4F87092B9F1000F04D02B464B
:10580000324639464046C847C4F86082C4F86472DC
:10581000C4F86862C4F86C52BDE8F883B0F5966FBE
:1058200003D10121014807F07FB8704718240020F8
:105830000068704738B50546FFF76EFA95F8D8301E
:105840004BB9D5F82041402C28BF40242846FFF70B
:105850006BFA204638BD0024F8E790F878007047CE
:10586000F7B504461F4615460E4607F021FCBDF865
:1058700024300193BDF8203000932A463B46014670
:105880002046FFF763FC002104F5947005F06AFDE3
:105890004FF47A73C4F84831194B236003F178024E
:1058A0000025C4F8282103F1D802E833C4F8445194
:1058B000C4F82C212946C4F840314FF4807204F515
:1058C000A87010F07DF904F52D77C4F85052C4F893
:1058D0005452C4F8585204F51D7528461035FFF788
:1058E0005CFEBD42F9D10023C4F8B432C4F8703272
:1058F00016B12046FFF7EEFC204603B0F0BD00BF16
:105900009CB70200114B03F1780270B50360C0F838
:10591000282103F1D802E8330446C0F82C21C0F84E
:10592000403100F51D7600F52D75AE4204D0103DD6
:105930002846FEF717FDF8E704F5947005F03CFDE6
:105940002046FFF7CDFA204670BD00BF9CB702008D
:10595000A0F59470FFF7D6BFA0F59670FFF7D2BF01
:1059600010B50446FFF7CEFF20464FF42E7106F027
:105970006FFE204610BDA0F59670FFF7F1BFA0F5B1
:105980009470FFF7EDBF884238B5044606D00D4647
:10599000FAF747FD29462046FAF73DFD204638BD77
:1059A00008B5FAF730FD0068003018BF012008BDC7
:1059B00010B50446FFF7F4FF28B940F20222064969
:1059C000064806F01DF8E068FFF732FF0346204660
:1059D000BDE81040184700BF8FA402009AA402003F
:1059E000F8B50646FFF7A8F906F51D740025D6F8A8
:1059F000B432AB420AD92046FFF7D2FF2746103413
:105A000020B13846FFF7D4FF0135F0E7F8BD0000BC
:105A1000044BC36003460A6843F8042B002242602B
:105A20005A60704780B7020013B50446019121B94E
:105A3000FAF7EBFC204602B010BD01A9FFF7E8FF22
:105A4000F8E710B4D0E9003409686210E40701EB0C
:105A5000020048BF8A585DF8044B48BFD358184726
:105A600008B501460430FFF7ECFF08BD034AC260E9
:105A7000034607C983E80700704700BF74B70200F8
:105A800010B586B004460391684606A980E80C006C
:105A900001E90C00204603A9FFF7E8FF204606B005
:105AA00010BD37B56C4684E80C0094E80C00054640
:105AB000FFF7E6FF284603B030BD000030B50446CE
:105AC00089B0FFF729F92A4BC4F870322046FFF756
:105AD0002BF9284B02930023039302AB0CCB2146F6
